:090B650070617373776F72640014
:100A6E00120B227BFF7A0B79657D017F01120A96AC
:100A7E001208008F22E52260F7FB7A00750C027DCA
:080A8E00017F02120AD780E883
:060B3600C2A58F80D2A7CA
:080B3C007F027EEFDEFEDFFC0C
:010B4400228E
:0A0B5100C2A6120B36C2A7020B3C2D
:100AB900CFCDCFCECCCE12093B7C007D0A12093BAB
:040AC900ED2430FFE9
:0A0ACD00D2A6120B36C2A7020B3CA2
:100B0C00AE07BE0104ED148006BE0209ED243F447D
:060B1C0080FF120B5122C4
:100B22007F38120B517F0C120B517F06120B517F33
:040B320001020B5160
:0A0B5B00AC03120B0CAF04020ACD2C
:060A96008B088A09890AA1
:100A9C00120B0CE4FDAB08AA09A90A8D8275830020
:0C0AAC001208FCFF6006120ACD0D80E964
:010AB800221B
:0C0A3B007F0AEA24FFFDE434FFFC7E008B
:080A47008E0D8F0E8C0F8D1037
:100A4F007F017E00E4FBEBC39510E50F6480F87423
:0E0A5F008098500AAC0DAD0E1209290B80E8EC
:010A6D002266
:040AD7008A0A8B0BF1
:100ADB00120B0CAA0CEAD39400400D120A3BAC0A81
:080AEB00AD0B120AB91A80EDEF
:010AF30022E0
:10099000120B0CC3EA64809480400B7F2B120ACDAB
:1009A0008A168B17800E7F2D120ACDC3E49BF51794
:1009B000E49AF516AA15EAD39400400D120A3BAC4E
:0909C00016AD17120AB91A80EDF8
:0109C900220B
:0409CA008A1A8B1BDF
:1009CE00120B0CAA1CEAD3940040297F10120A3D88
:1009DE00AC1AAD1BCFCDCFCECCCE12093BEF540F00
:1009EE00FEC3940AEE5004243080022437FF120A0C
:0409FE00CD1A80D1BD
:010A020022D1
:040A03008A1F8B209B
:100A0700120B0CAA21EAD394004028EA24FFFDE444
:100A170034FFFC7F027E00120A47AC1FAD20CFCD0A
:100A2700CFCECCCE12093BEF54012430FF120ACDB2
:030A37001A80D250
:010A3A002299
:040AF4007F147E00ED
:100AF800EF4E600F7D027CEFDCFEDDFCEF1F70F037
:030B08001E80ED5F
:010B0B0022C7
:10080000E4FB7590FFC29320970E7F14FE120AF846
:100810003097FD120AF47B0120960B120AF43096F1
:10082000FD120AF47B0520950B120AF43095FD1297
:100830000AF47B0920940B120AF43094FD120AF496
:100840007B0D7590FFC29220970B120AF43097FD32
:10085000120AF47B0220960B120AF43096FD120A5B
:10086000F47B0620950B120AF43095FD120AF47BF6
:100870000A20940B120AF43094FD120AF47B0E75D0
:1008800090FFC29120970B120AF43097FD120AF4E0
:100890007B0320960B120AF43096FD120AF47B07B4
:1008A00020950B120AF43095FD120AF47B0B20946C
:1008B0000B120AF43094FD120AF47B0F7590FFC2FC
:1008C0009020970B120AF43097FD120AF47B042053
:1008D000960B120AF43096FD120AF47B0820950B51
:1008E000120AF43095FD120AF47B0C20940B120AC4
:0B08F000F43094FD120AF47B10AF03FB
:0108FB0022DA
:03000000020B45AB
:0C0B4500787FE4F6D8FD758122020A6E6C
:1008FC00BB010CE58229F582E5833AF583E02250B1
:10090C0006E92582F8E622BBFE06E92582F8E222FA
:0D091C00E58229F582E5833AF583E4932214
:10092900EF8DF0A4A8F0CF8CF0A428CE8DF0A42EE2
:02093900FE229C
:10093B00BC000BBE0029EF8DF084FFADF022E4CCA0
:10094B00F875F008EF2FFFEE33FEEC33FCEE9DEC69
:10095B00984005FCEE9DFE0FD5F0E9E4CEFD22EDAF
:10096B00F8F5F0EE8420D21CFEADF075F008EF2FF9
:10097B00FFED33FD4007985006D5F0F222C398FDEA
:05098B000FD5F0EA2287
:00000001FF
