:0F0C340070617373776F7264004F4B004E4F0007
:040C6600021704D29B
:1008FC007508037509E8120C20750E04AB18AA17BD
:10090C007D017F01120BD57BFF7A0C79347D057F3D
:10091C000180631208008F19E51960F7D3940A500F
:10092C00F2C3E5149404E51394005028AE15AF16E9
:10093C007C007D0A1209C38E158F16E51975F00A15
:10094C0084E5F02516F516E43515F5150514E514B2
:10095C0070020513750E04AB16AA157D017F0212E9
:10096C000BD5E516B51814E515B5170F7BFF7A0CEA
:10097C00793D7D0A7F02120B9480987BFF7A0C796B
:0A098C00407D0A7F02120B9480895F
:040BF2007F147E00EE
:100BF600EF4E600F7D027CEFDCFEDDFCEF1F70F038
:030C06001E80ED60
:010C090022C8
:10080000E4FB7590FFC29320970E7F14FE120BF647
:100810003097FD120BF27B0120960B120BF23096F3
:10082000FD120BF27B0520950B120BF23095FD1299
:100830000BF27B0920940B120BF23094FD120BF299
:100840007B0D7590FFC29220970B120BF23097FD33
:10085000120BF27B0220960B120BF23096FD120B5C
:10086000F27B0620950B120BF23095FD120BF27BFA
:100870000A20940B120BF23094FD120BF27B0E75D2
:1008800090FFC29120970B120BF23097FD120BF2E2
:100890007B0320960B120BF23096FD120BF27B07B6
:1008A00020950B120BF23095FD120BF27B0B20946E
:1008B0000B120BF23094FD120BF27B0F7590FFC2FE
:1008C0009020970B120BF23097FD120BF27B042055
:1008D000960B120BF23096FD120BF27B0820950B53
:1008E000120BF23095FD120BF27B0C20940B120BC5
:0B08F000F23094FD120BF27B10AF03FE
:0108FB0022DA
:060C4300C2A58F80D2A7BC
:080C49007F027EEFDEFEDFFCFE
:010C51002280
:0A0C5200C2A6120C43C2A7020C490F
:100BB700CFCDCFCECCCE1209D57C007D0A1209D578
:040BC700ED2430FFEA
:0A0BCB00D2A6120C43C2A7020C4987
:100C0A00AE07BE0104ED148006BE0209ED243F447E
:060C1A0080FF120C5222C3
:100C20007F38120C527F0C120C527F06120C527F2E
:040C300001020C525F
:0A0C5C00AC03120C0AAF04020BCB2C
:060B94008B0A8A0B890C9C
:100B9A00120C0AE4FDAB0AAA0BA90C8D827583001C
:0C0BAA00120996FF6006120BCB0D80E9CB
:010BB600221C
:0C0B61007F0AEA24FFFDE434FFFC7E0064
:080B6D008E0F8F108C118D1208
:100B75007F017E00E4FBEBC39512E5116480F874F8
:0E0B85008098500AAC0FAD101209C30B80E827
:010B9300223F
:040BD5008A0C8B0DEE
:100BD900120C0AAA0EEAD39400400D120B61AC0C58
:080BE900AD0D120BB71A80EDEF
:010BF10022E1
:100AB600120C0AC3EA64809480400B7F2B120BCB86
:100AC6008A1F8B20800E7F2D120BCBC3E49BF52053
:100AD600E49AF51FAA1EEAD39400400D120B61ACEE
:090AE6001FAD20120BB71A80EDC0
:010AEF0022E4
:040AF0008A238B24A6
:100AF400120C0AAA25EAD3940040297F10120B6332
:100B0400AC23AD24CFCDCFCECCCE1209D5EF540F2C
:100B1400FEC3940AEE5004243080022437FF120BE3
:040B2400CB1A80D197
:010B280022AA
:040B29008A288B2962
:100B2D00120C0AAA2AEAD394004028EA24FFFDE415
:100B3D0034FFFC7F027E00120B6DAC28AD29CFCDAA
:100B4D00CFCECCCE1209D5EF54012430FF120BCBF2
:030B5D001A80D229
:010B60002272
:03000000020A2AC7
:0C0A2A00787FE4F6D8FD75812A020A717D
:10099600BB010CE58229F582E5833AF583E0225016
:1009A60006E92582F8E622BBFE06E92582F8E22260
:0D09B600E58229F582E5833AF583E493227A
:1009C300EF8DF0A4A8F0CF8CF0A428CE8DF0A42E48
:0209D300FE2202
:1009D500BC000BBE0029EF8DF084FFADF022E4CC06
:1009E500F875F008EF2FFFEE33FEEC33FCEE9DECCF
:1009F500984005FCEE9DFE0FD5F0E9E4CEFD22ED15
:100A0500F8F5F0EE8420D21CFEADF075F008EF2F5E
:100A1500FFED33FD4007985006D5F0F222C398FD4F
:050A25000FD5F0EA22EC
:100A36000208FCE493A3F8E493A34003F68001F2D2
:100A460008DFF48029E493A3F85407240CC8C333C1
:100A5600C4540F4420C8834004F456800146F6DF90
:100A6600E4800B0102040810204080900C66E47EAE
:100A7600019360BCA3FF543F30E509541FFEE49385
:100A8600A360010ECF54C025E060A840B8E493A34C
:100A9600FAE493A3F8E493A3C8C582C8CAC583CA77
:100AA600F0A3C8C582C8CAC583CADFE9DEE780BE2F
:010C6A000089
:00000001FF
