:100DD20020202D20202D20200020203A20203A20E3
:020DE2002000EF
:1009B400120DBE120E227BFF7A0D79D27D017F01CA
:1009C400120D797BFF7A0D79DB7D017F02120D799F
:1009D400120800120A4EE512FB3395E0FA750D0277
:1009E4007D017C007F01120D48E513FB3395E0FA8D
:1009F400750D027D047C007F01120D48E514FB3364
:100A040095E0FA750D027D077C007F01120D48E523
:100A140015FB3395E0FA750D027D017C007F02120F
:100A24000D48E516FB3395E0FA750D027D047C0054
:100A34007F02120D48E517FB3395E0FA750D027D30
:0A0A4400077C007F02120D48808934
:090E10000712170305141E1E074A
:050E2200C2B5C2B622BA
:060BC90025F0FDEC3EFCEE
:060BCF008C088D09AB0744
:100BD500D2B5E4FD74017E00A805088005C333CEB7
:100BE50033CED8F9FFEBF582EF558224FF92B4D2CC
:100BF500B6C2B60DBD08DDE4FD74017E00A805088A
:100C05008005C333CE33CED8F9FFE5085EFEE5098E
:100C15005F4E24FF92B4D2B6C2B60DBD08DBC2B595
:010C250022AC
:020C7900AD07C5
:100C7B00E4F9430501D2B5FB74017E00A80308809B
:100C8B0005C333CE33CED8F9FFEDF582EF55822471
:100C9B00FF92B4C2B6D2B60BBB08DDE4FBD2B6C230
:100CAB00B630B40D7401A803088002C333D8FC42DC
:0B0CBB00010BBB08E8C2B5C2B4AF01DA
:010CC600220B
:10080000E4FDFC7F8E120BCFE51275F00A8475F0C3
:1008100010A4FFAEF0E51275F00A84EF7F8C120B86
:10082000C9E51375F00A8475F010A4FFAEF0E51366
:1008300075F00A847C00EF7F88120BC9E51475F00F
:100840000A8475F010A4FFAEF0E51475F00A847CFC
:1008500000EF25F0FDEC3EFC7F86120BCFE5157511
:10086000F00A8475F010A4FFAEF0E51575F00A8467
:100870007C00EF25F0FDEC3EFC7F84120BCFE516EB
:1008800075F00A8475F010A4FFAEF0E51675F00A55
:10089000847C00EF25F0FDEC3EFC7F82120BCFE55F
:1008A0001775F00A8475F010A4FFAEF0E51775F027
:1008B0000A847C00EF25F0FDEC3EFC7F80120BCF1C
:1008C000E51875F00A8475F010A4FFAEF0E5187510
:1008D000F00A847C00EF25F0FDEC3EFC7F8A120BD1
:0A08E000CF7D807C007F8E020BCFDD
:100A4E007F8C120C79EFC4540F75F00AA4FEEF548C
:100A5E000F2EF5127F88120C79EFC4540F75F00A21
:100A6E00A4FEEF540F2EF5137F86120C79EFC454AB
:100A7E000F75F00AA4FEEF540F2EF5147F84120C9E
:100A8E0079EFC4540F75F00AA4FEEF540F2EF5152E
:100A9E007F82120C79EFC4540F75F00AA4FEEF5446
:100AAE000F2EF5167F80120C79EFC4540F75F00AD5
:100ABE00A4FEEF540F2EF5177F8A120C79EFC45453
:0C0ACE000F75F00AA4FEEF540F2EF5186F
:010ADA0022F9
:0A0D9F00C2A58F80D2A77F017E005D
:100DA900EF1FAC0670011E4C600A7D027CEFDCFE71
:040DB900DDFC80ECF1
:010DBD002213
:100C2600EFB40A00504C900C33F8282873020C518C
:100C3600020C55020C59020C5D020C61020C650295
:100C46000C69020C6D020C71020C7575803F2275E1
:100C560080062275805B2275804F2275806622751C
:100C6600806D2275807D227580072275807F2275B2
:030C7600806F226A
:100B6700AE05EF14B408005054900B7E75F003A443
:100B7700C58325F0C58373020B96020B9A020B9E61
:100B8700020BA2020BA6020BAE020BB6020BBED2E1
:100B9700A4800ED2A48012D2A48016D2A4801AC236
:100BA700A4D2A3D2A28016C2A4D2A3C2A2800EC28C
:100BB700A4C2A3D2A28006C2A4C2A3C2A2AF060245
:020BC7000C26FA
:0E0DF400C2A6120D9FC2A77F017E00020DA9AC
:0E0E0200D2A6120D9FC2A77F017E00020DA98D
:100DBE007F38120DF47F0C120DF47F06120DF47FA6
:040DCE0001020DF41D
:100DE400EDBF0103148002243F4480FF120DF4225E
:080E1A00120DE4AF03020E0209
:060D79008B088A09890ABB
:100D7F00120DE4E4F50BAB08AA09A90A850B8275DD
:0F0D8F0083001208EAFF6007120E02050B80E7CF
:010D9E002232
:0C0D1500EA24FFFDE434FFFC7F0A7E00AE
:080D21008E0E8F0F8C108D1156
:100D29007F017E00E4FBEBC39511E5106480F87444
:0E0D39008098500AAC0EAD0F1209170B80E81F
:010D47002289
:040D48008A0B8B0C7B
:100D4C00120DE4AA0DEAD394004021120D15AC0B40
:100D5C00AD0CCFCDCFCECCCE1209297C007D0A12A2
:0C0D6C000929ED2430FF120E021A80D974
:010D78002258
:100CC700120DE4C3EA64809480400B7F2B120E025E
:100CD7008A1E8B1F800E7F2D120E02C3E49BF51F09
:100CE700E49AF51EAA1DEAD394004021120D15AC13
:100CF7001EAD1FCFCDCFCECCCE12097E7C007D0A94
:0D0D070012097EED2430FF120E021A80D971
:010D140022BC
:03000000020ADB16
:0C0ADB00787FE4F6D8FD75811F020B2225
:1008EA00BB010CE58229F582E5833AF583E02250C3
:1008FA0006E92582F8E622BBFE06E92582F8E2220D
:0D090A00E58229F582E5833AF583E4932226
:10091700EF8DF0A4A8F0CF8CF0A428CE8DF0A42EF4
:02092700FE22AE
:10092900BC000BBE0029EF8DF084FFADF022E4CCB2
:10093900F875F008EF2FFFEE33FEEC33FCEE9DEC7B
:10094900984005FCEE9DFE0FD5F0E9E4CEFD22EDC1
:10095900F8F5F0EE8420D21CFEADF075F008EF2F0B
:10096900FFED33FD4007985006D5F0F222C398FDFC
:050979000FD5F0EA2299
:10097E00C2D5EC30E709B2D5E4C39DFDE49CFCEE94
:10098E0030E715B2D5E4C39FFFE49EFE120929C3DA
:10099E00E49DFDE49CFC800312092930D507C3E4D5
:0609AE009FFFE49EFE2203
:100AE7000209B4E493A3F8E493A34003F68001F268
:100AF70008DFF48029E493A3F85407240CC8C33310
:100B0700C4540F4420C8834004F456800146F6DFDE
:100B1700E4800B0102040810204080900E10E47E50
:100B2700019360BCA3FF543F30E509541FFEE493D3
:100B3700A360010ECF54C025E060A840B8E493A39A
:100B4700FAE493A3F8E493A3C8C582C8CAC583CAC5
:100B5700F0A3C8C582C8CAC583CADFE9DEE780BE7D
:010E190000D8
:00000001FF
