:100CAA00758901C28DD28C758CFC758A18D2A9D22D
:040CBA00AFC2B922EA
:100C6B0075A0FE120000120AB58F17E51760F7B4D6
:100C7B0001F40518E518C3940240EBE4F51880E67F
:03000B00020C1BC9
:040C1B00C0E0C0D0A5
:100C1F00758A18758CFCC3E51694E8E515940340A6
:100C2F0008751500751600B2A00516E516700205B9
:010C3F00159F
:050C4000D0D0D0E0322D
:10080000E4F5217590FFC2932097137F14FE120C1C
:10081000953097FD7F147E00120C9575210120966E
:10082000147F147E00120C953096FD7F147E00120A
:100830000C957521052095147F147E00120C9530BF
:1008400095FD7F147E00120C957521092094147F6C
:10085000147E00120C953094FD7F147E00120C95CE
:1008600075210D7590FFC2922097147F147E00129F
:100870000C953097FD7F147E00120C957521022097
:1008800096147F147E00120C953096FD7F147E0026
:10089000120C957521062095147F147E00120C957C
:1008A0003095FD7F147E00120C9575210A2094145A
:1008B0007F147E00120C953094FD7F147E00120C84
:1008C0009575210E7590FFC2912097147F147E00BC
:1008D000120C953097FD7F147E00120C9575210344
:1008E0002096147F147E00120C953096FD7F147EA6
:1008F00000120C957521072095147F147E00120CB0
:10090000953095FD7F147E00120C9575210B209477
:10091000147F147E00120C953094FD7F147E00121B
:100920000C9575210F7590FFC2902097147F147E4F
:1009300000120C953097FD7F147E00120C957521E6
:10094000042096147F147E00120C953096FD7F14BF
:100950007E00120C957521082095147F147E0012DC
:100960000C953095FD7F147E00120C9575210C209E
:1009700094147F147E00120C953094FD7F147E0039
:08098000120C95752110AF2146
:01098800224C
:100AB500E4F52220B1137F14FE120C9530B1FD7FB1
:100AC500147E00120C9575220120B0147F147E004F
:100AD500120C9530B0FD7F147E00120C9575220224
:100AE50020B2147F147E00120C9530B2FD7F147E67
:100AF50000120C9575220320B3147F147E00120C8E
:100B05009530B3FD7F147E00120C95752204AF223B
:010B150022BD
:0A0C8B00C2A58F80D2A77F017E0072
:100C9500EF1FAC0670011E4C600A7D027CEFDCFE86
:040CA500DDFC80EC06
:010CA9002228
:100B1600EFB40A00504C900B23F8282873020B41BF
:100B2600020B45020B49020B4D020B51020B5502FB
:100B36000B59020B5D020B61020B6575803F227536
:100B460080062275805B2275804F2275806622752D
:100B5600806D2275807D227580072275807F2275C3
:030B6600806F227B
:100A5300AE05EF14B408005054900A6A75F003A46D
:100A6300C58325F0C58373020A82020A86020A8AB5
:100A7300020A8E020A92020A9A020AA2020AAAD25F
:100A8300A4800ED2A48012D2A48016D2A4801AC24B
:100A9300A4D2A3D2A28016C2A4D2A3C2A2800EC2A1
:100AA300A4C2A3D2A28006C2A4C2A3C2A2AF06025A
:020AB3000B1620
:0E0CE200C2A6120C8BC2A77F017E00020C95E9
:0E0CF000D2A6120C8BC2A77F017E00020C95CB
:100CBE007F38120CE27F0C120CE27F06120CE27FE0
:040CCE0001020CE231
:100CD200EDBF0103148002243F4480FF120CE22284
:080D0A00120CD2AF03020CF041
:060C45008B198A1A891BBD
:100C4B00120CD2E4F51CAB19AA1AA91B851C8275D0
:0F0C5B008300120989FF6007120CF0051C80E767
:010C6A002267
:0C0BB700EA24FFFDE434FFFC7F0A7E000E
:080BC3008E1D8F1E8C1F8D207A
:100BCB007F017E00E4FBEBC39520E51F6480F87486
:0E0BDB008098500AAC1DAD1E1209B60B80E8C2
:010BE90022E9
:040BEA008A128B13CD
:100BEE00120CD2AA14EAD394004021120BB7AC1205
:100BFE00AD13CFCDCFCECCCE1209C87C007D0A125C
:0C0C0E0009C8ED2430FF120CF01A80D948
:010C1A0022B7
:100B6900120CD2C3EA64809480400B7F2B120CF0E4
:100B79008A0D8B0E800E7F2D120CF0C3E49BF50EAF
:100B8900E49AF50DAA0CEAD394004021120BB7ACF4
:100B99000DAD0ECFCDCFCECCCE120A1D7C007D0A75
:0D0BA900120A1DED2430FF120CF01A80D945
:010BB600221C
:03000000020CFEF1
:0C0CFE00787FE4F6D8FD758122020C6BB3
:10098900BB010CE58229F582E5833AF583E0225023
:1009990006E92582F8E622BBFE06E92582F8E2226D
:0D09A900E58229F582E5833AF583E4932287
:1009B600EF8DF0A4A8F0CF8CF0A428CE8DF0A42E55
:0209C600FE220F
:1009C800BC000BBE0029EF8DF084FFADF022E4CC13
:1009D800F875F008EF2FFFEE33FEEC33FCEE9DECDC
:1009E800984005FCEE9DFE0FD5F0E9E4CEFD22ED22
:1009F800F8F5F0EE8420D21CFEADF075F008EF2F6C
:100A0800FFED33FD4007985006D5F0F222C398FD5C
:050A18000FD5F0EA22F9
:100A1D00C2D5EC30E709B2D5E4C39DFDE49CFCEEF4
:100A2D0030E715B2D5E4C39FFFE49EFE1209C8C39B
:100A3D00E49DFDE49CFC80031209C830D507C3E496
:060A4D009FFFE49EFE2263
:00000001FF
