:060A440068656C6C6F0098
:1009D000120A017B617D017F01120A3A7BFF7A0ACC
:0B09E00079447D037F0112097280FE44
:060A1500C2A58F80D2A7EC
:080A1B007F027EEFDEFEDFFC2E
:010A230022B0
:0A0A3000C2A6120A15C2A7020A1B93
:10099500CFCDCFCECCCE12083F7C007D0A12083FCA
:0409A500ED2430FF0E
:0A09A900D2A6120A15C2A7020A1B0B
:1009EB00AE07BE0104ED148006BE0209ED243F44A0
:0609FB0080FF120A302209
:100A01007F38120A307F0C120A307F06120A307FBB
:040A110001020A30A4
:0A0A3A00AC031209EBAF040209A996
:060972008B228A23892478
:100978001209EBE4FDAB22AA23A9248D827583001A
:0C098800120800FF60061209A90D80E9AA
:010994002240
:0C093F007F0AEA24FFFDE434FFFC7E0088
:08094B008E1E8F1F8C208D21F0
:100953007F017E00E4FBEBC39521E5206480F874FE
:0E0963008098500AAC1EAD1F12082D0B80E8C4
:010971002263
:0409B3008A118B1208
:1009B7001209EBAA13EAD39400400D12093FAC11B8
:0809C700AD121209951A80ED32
:0109CF002205
:100894001209EBC3EA64809480400B7F2B1209A9F0
:1008A4008A0D8B0E800E7F2D1209A9C3E49BF50ED1
:1008B400E49AF50DAA0CEAD39400400D12093FAC5A
:0908C4000DAD0E1209951A80ED2C
:0108CD002208
:0408CE008A168B17E4
:1008D2001209EBAA18EAD3940040297F10120941A9
:1008E200AC16AD17CFCDCFCECCCE12083FEF540F02
:1008F200FEC3940AEE5004243080022437FF12090A
:04090200A91A80D1DD
:0109060022CE
:040907008A1B8B1CA0
:10090B001209EBAA1DEAD394004028EA24FFFDE468
:10091B0034FFFC7F027E0012094BAC1BAD1CCFCD0C
:10092B00CFCECCCE12083FEF54012430FF1209A9D1
:03093B001A80D24D
:01093E002296
:03000000020A24CD
:0C0A2400787FE4F6D8FD7581240209D02B
:10080000BB010CE58229F582E5833AF583E02250AD
:1008100006E92582F8E622BBFE06E92582F8E222F7
:0D082000E58229F582E5833AF583E4932211
:10082D00EF8DF0A4A8F0CF8CF0A428CE8DF0A42EDF
:02083D00FE2299
:10083F00BC000BBE0029EF8DF084FFADF022E4CC9D
:10084F00F875F008EF2FFFEE33FEEC33FCEE9DEC66
:10085F00984005FCEE9DFE0FD5F0E9E4CEFD22EDAC
:10086F00F8F5F0EE8420D21CFEADF075F008EF2FF6
:10087F00FFED33FD4007985006D5F0F222C398FDE7
:05088F000FD5F0EA2284
:00000001FF
