:040D3400020C04D2D7
:020D390080FE3A
:0A0CCD00C2A58F80D2A77F017E0030
:100CD700EF1FAC0670011E4C600A7D027CEFDCFE44
:040CE700DDFC80ECC4
:010CEB0022E6
:100BA200EFB40A00504C900BAFF8282873020BCD1B
:100BB200020BD1020BD5020BD9020BDD020BE102B3
:100BC2000BE5020BE9020BED020BF175803F22757A
:100BD20080062275805B2275804F227580662275A1
:100BE200806D2275807D227580072275807F227537
:030BF200806F22EF
:100ADF00AE05EF14B408005054900AF675F003A455
:100AEF00C58325F0C58373020B0E020B12020B1682
:100AFF00020B1A020B1E020B26020B2E020B36D212
:100B0F00A4800ED2A48012D2A48016D2A4801AC2BE
:100B1F00A4D2A3D2A28016C2A4D2A3C2A2800EC214
:100B2F00A4C2A3D2A28006C2A4C2A3C2A2AF0602CD
:020B3F000BA207
:0E0D1000C2A6120CCDC2A77F017E00020CD736
:0E0D1E00D2A6120CCDC2A77F017E00020CD718
:100CEC007F38120D107F0C120D107F06120D107F25
:040CFC0001020D10D4
:100D0000EDBF0103148002243F4480FF120D102226
:080D2C00120D00AF03020D1EC1
:060CA7008B1C8A1D891E52
:100CAD00120D00E4F51FAB1CAA1DA91E851F827530
:0F0CBD008300120989FF6007120D1E051F80E7D3
:010CCC002205
:0C0C4300EA24FFFDE434FFFC7F0A7E0081
:080C4F008E208F218C228D23E1
:100C57007F017E00E4FBEBC39523E5226480F874F3
:0E0C67008098500AAC20AD211209B60B80E82F
:010C7500225C
:040C76008A198B1A32
:100C7A00120D00AA1BEAD394004021120C43AC19AE
:100C8A00AD1ACFCDCFCECCCE1209C87C007D0A12C8
:0C0C9A0009C8ED2430FF120D1E1A80D98D
:010CA600222B
:100BF500120D00C3EA64809480400B7F2B120D1EFA
:100C05008A148B15800E7F2D120D1EC3E49BF515DE
:100C1500E49AF514AA13EAD394004021120C43ACCC
:100C250014AD15CFCDCFCECCCE120A1D7C007D0ADA
:0D0C3500120A1DED2430FF120D1E1A80D989
:010C4200228F
:10080000E4F5247590FFC2932097137F14FE120C19
:10081000D73097FD7F147E00120CD77524012096E7
:10082000147F147E00120CD73096FD7F147E0012C8
:100830000CD77524052095147F147E00120CD73038
:1008400095FD7F147E00120CD77524092094147F27
:10085000147E00120CD73094FD7F147E00120CD74A
:1008600075240D7590FFC2922097147F147E00129C
:100870000CD73097FD7F147E00120CD77524022010
:1008800096147F147E00120CD73096FD7F147E00E4
:10089000120CD77524062095147F147E00120CD7F5
:1008A0003095FD7F147E00120CD775240A20941415
:1008B0007F147E00120CD73094FD7F147E00120C42
:1008C000D775240E7590FFC2912097147F147E0077
:1008D000120CD73097FD7F147E00120CD7752403BD
:1008E0002096147F147E00120CD73096FD7F147E64
:1008F00000120CD77524072095147F147E00120C6B
:10090000D73095FD7F147E00120CD775240B2094F0
:10091000147F147E00120CD73094FD7F147E0012D9
:100920000CD775240F7590FFC2902097147F147E0A
:1009300000120CD73097FD7F147E00120CD775245F
:10094000042096147F147E00120CD73096FD7F147D
:100950007E00120CD77524082095147F147E001297
:100960000CD73095FD7F147E00120CD775240C2017
:1009700094147F147E00120CD73094FD7F147E00F7
:08098000120CD7752410AF24FE
:01098800224C
:100B4100E4F52520B1137F14FE120CD730B1FD7FDF
:100B5100147E00120CD775250120B0147F147E007D
:100B6100120CD730B0FD7F147E00120CD775250210
:100B710020B2147F147E00120CD730B2FD7F147E98
:100B810000120CD775250320B3147F147E00120CBC
:100B9100D730B3FD7F147E00120CD7752504AF2525
:010BA1002231
:03000000020A539E
:0C0A5300787FE4F6D8FD758125020A9A30
:10098900BB010CE58229F582E5833AF583E0225023
:1009990006E92582F8E622BBFE06E92582F8E2226D
:0D09A900E58229F582E5833AF583E4932287
:1009B600EF8DF0A4A8F0CF8CF0A428CE8DF0A42E55
:0209C600FE220F
:1009C800BC000BBE0029EF8DF084FFADF022E4CC13
:1009D800F875F008EF2FFFEE33FEEC33FCEE9DECDC
:1009E800984005FCEE9DFE0FD5F0E9E4CEFD22ED22
:1009F800F8F5F0EE8420D21CFEADF075F008EF2F6C
:100A0800FFED33FD4007985006D5F0F222C398FD5C
:050A18000FD5F0EA22F9
:100A1D00C2D5EC30E709B2D5E4C39DFDE49CFCEEF4
:100A2D0030E715B2D5E4C39FFFE49EFE1209C8C39B
:100A3D00E49DFDE49CFC80031209C830D507C3E496
:060A4D009FFFE49EFE2263
:100A5F00020D39E493A3F8E493A34003F68001F267
:100A6F0008DFF48029E493A3F85407240CC8C33398
:100A7F00C4540F4420C8834004F456800146F6DF67
:100A8F00E4800B0102040810204080900D34E47EB6
:100A9F00019360BCA3FF543F30E509541FFEE4935C
:100AAF00A360010ECF54C025E060A840B8E493A323
:100ABF00FAE493A3F8E493A3C8C582C8CAC583CA4E
:100ACF00F0A3C8C582C8CAC583CADFE9DEE780BE06
:010D380000BA
:00000001FF
